{
  "_format": "hh-sol-artifact-1",
  "contractName": "Storage",
  "sourceName": "contracts/Storage.sol",
  "abi": [
    {
      "inputs": [],
      "name": "allKeys",
      "outputs": [
        {
          "internalType": "string[]",
          "name": "",
          "type": "string[]"
        }
      ],
      "stateMutability": "view",
      "type": "function"
    },
    {
      "inputs": [],
      "name": "allKeysData",
      "outputs": [
        {
          "components": [
            {
              "internalType": "address",
              "name": "owner",
              "type": "address"
            },
            {
              "internalType": "string",
              "name": "info",
              "type": "string"
            }
          ],
          "internalType": "struct IStorage.Data[]",
          "name": "",
          "type": "tuple[]"
        }
      ],
      "stateMutability": "view",
      "type": "function"
    },
    {
      "inputs": [
        {
          "internalType": "string",
          "name": "_key",
          "type": "string"
        }
      ],
      "name": "clearKeyData",
      "outputs": [],
      "stateMutability": "nonpayable",
      "type": "function"
    },
    {
      "inputs": [
        {
          "internalType": "string[]",
          "name": "_keys",
          "type": "string[]"
        }
      ],
      "name": "clearKeysData",
      "outputs": [],
      "stateMutability": "nonpayable",
      "type": "function"
    },
    {
      "inputs": [
        {
          "internalType": "string",
          "name": "_key",
          "type": "string"
        }
      ],
      "name": "getData",
      "outputs": [
        {
          "components": [
            {
              "internalType": "address",
              "name": "owner",
              "type": "address"
            },
            {
              "internalType": "string",
              "name": "info",
              "type": "string"
            }
          ],
          "internalType": "struct IStorage.Data",
          "name": "",
          "type": "tuple"
        }
      ],
      "stateMutability": "view",
      "type": "function"
    },
    {
      "inputs": [
        {
          "internalType": "string",
          "name": "_key",
          "type": "string"
        },
        {
          "components": [
            {
              "internalType": "address",
              "name": "owner",
              "type": "address"
            },
            {
              "internalType": "string",
              "name": "info",
              "type": "string"
            }
          ],
          "internalType": "struct IStorage.Data",
          "name": "_data",
          "type": "tuple"
        }
      ],
      "name": "setKeyData",
      "outputs": [],
      "stateMutability": "nonpayable",
      "type": "function"
    },
    {
      "inputs": [
        {
          "components": [
            {
              "internalType": "string",
              "name": "key",
              "type": "string"
            },
            {
              "components": [
                {
                  "internalType": "address",
                  "name": "owner",
                  "type": "address"
                },
                {
                  "internalType": "string",
                  "name": "info",
                  "type": "string"
                }
              ],
              "internalType": "struct IStorage.Data",
              "name": "data",
              "type": "tuple"
            }
          ],
          "internalType": "struct IStorage.KeyData[]",
          "name": "_keysData",
          "type": "tuple[]"
        }
      ],
      "name": "setKeysData",
      "outputs": [],
      "stateMutability": "nonpayable",
      "type": "function"
    }
  ],
  "bytecode": "0x60806040523461001a5760405161150b610020823961150b90f35b600080fdfe6080604052600436101561001257600080fd5b60003560e01c806311d881b11461008257806328ce86381461007d578063ac193f1a14610078578063ae55c88814610073578063be05133c1461006e578063cb965ae9146100695763f14805c30361008757610641565b6105d3565b610545565b6103c1565b610398565b6102c4565b6101b0565b600080fd5b600091031261008757565b6001600160a01b031690565b90565b60005b8381106100b95750506000910152565b81810151838201526020016100a9565b6100ea6100f36020936100fd936100de815190565b80835293849260200190565b958691016100a6565b601f01601f191690565b0190565b80516001600160a01b031682526100a3916040810191602001519060208184039101526100c9565b906100a391610101565b9061014961013f835190565b8083529160200190565b908161015b6020830284019460200190565b926000915b83831061016f57505050505090565b9091929394602061019261018b83856001950387528951610129565b9760200190565b9301930191939290610160565b60208082526100a392910190610133565b34610087576101c036600461008c565b6101d76101cb6108ce565b6040519182918261019f565b0390f35b634e487b7160e01b600052604160045260246000fd5b90601f01601f191681019081106001600160401b0382111761021257604052565b6101db565b9061022b61022460405190565b92836101f1565b565b6001600160401b03811161021257602090601f01601f19160190565b90826000939282370152565b9092919261026a6102658261022d565b610217565b938185526020850190828401116100875761022b92610249565b9080601f83011215610087578160206100a393359101610255565b906020828203126100875781356001600160401b038111610087576100a39201610284565b34610087576102dc6102d736600461029f565b610a07565b604051005b6001600160401b0381116102125760208091020190565b929190610307610265826102e1565b93818552602080860192028101918383116100875781905b83821061032d575050505050565b81356001600160401b0381116100875760209161034d8784938701610284565b81520191019061031f565b9080601f83011215610087578160206100a3933591016102f8565b906020828203126100875781356001600160401b038111610087576100a39201610358565b34610087576102dc6103ab366004610373565b610a46565b60208082526100a392910190610101565b34610087576101d76103dc6103d736600461029f565b610682565b604051918291826103b0565b6001600160a01b0381160361008757565b9050359061022b826103e8565b9190916040818403126100875761041d6040610217565b92600061042a82846103f9565b9085015260208201356001600160401b0381116100875761044b9201610284565b6020830152565b919091604081840312610087576104696040610217565b9281356001600160401b0381116100875781610486918401610284565b845260208201356001600160401b0381116100875761044b9201610406565b9291906104b4610265826102e1565b93818552602080860192028101918383116100875781905b8382106104da575050505050565b81356001600160401b038111610087576020916104fa8784938701610452565b8152019101906104cc565b9080601f83011215610087578160206100a3933591016104a5565b906020828203126100875781356001600160401b038111610087576100a39201610505565b34610087576102dc610558366004610520565b610993565b906100a3916100c9565b9061057361013f835190565b90816105856020830284019460200190565b926000915b83831061059957505050505090565b909192939460206105b561018b8385600195038752895161055d565b930193019193929061058a565b60208082526100a392910190610567565b34610087576105e336600461008c565b6101d76105ee6107fb565b604051918291826105c2565b9190916040818403126100875780356001600160401b0381116100875783610623918301610284565b9260208201356001600160401b038111610087576100a39201610406565b34610087576102dc6106543660046105fa565b90610946565b6100a36040610217565b61066c61065a565b906000825260606020830152565b6100a3610664565b6100a39061068e61067a565b50610ba8565b906106a1610265836102e1565b918252565b634e487b7160e01b600052602260045260246000fd5b90600160028304921680156106dc575b60208310146106d757565b6106a6565b91607f16916106cc565b805460009392916107036106f9836106bc565b8085529360200190565b9160018116908115610755575060011461071c57505050565b61072f9192939450600052602060002090565b916000925b8184106107415750500190565b805484840152602090930192600101610734565b92949550505060ff1916825215156020020190565b906100a3916106e6565b9061022b61078e9261078560405190565b9384809261076a565b03836101f1565b6100a390610774565b906107a7825490565b6107b081610694565b926107c46020850191600052602060002090565b6000915b8383106107d55750505050565b6001602081926107e485610795565b8152019201920191906107c8565b6100a39061079e565b6100a360016107f2565b60005b82811061081457505050565b60209061081f61067a565b8184015201610808565b9061022b61083f61083984610694565b936102e1565b601f190160208401610805565b634e487b7160e01b600052601160045260246000fd5b60001981146108715760010190565b61084c565b634e487b7160e01b600052603260045260246000fd5b80548210156108af576108a6600191600052602060002090565b91020190600090565b610876565b906108bd825190565b8110156108af576020809102010190565b60016108e06108db825490565b610829565b906000815b6108ee57505090565b6108f96100a3835490565b8110156109415761093b8161092061091b61091586958661088c565b50610795565b610ba8565b61092a82876108b4565b5261093581866108b4565b50610862565b906108e5565b505090565b9061022b91610eed565b6100a36100a36100a39290565b1561096457565b60405162461bcd60e51b81526020600482015260076024820152664e4f5f4441544160c81b6044820152606490fd5b9061099c825190565b6109b86000916109b26109ae84610950565b9190565b1161095d565b60005b6109c66100a3855190565b811015610a0157806109f7836109df6109fc94886108b4565b51015160206109ee84896108b4565b51015190610eed565b610862565b6109bb565b50509050565b61022b906114cc565b15610a1757565b60405162461bcd60e51b81526020600482015260076024820152664e4f5f4b45595360c81b6044820152606490fd5b90610a4f825190565b610a67600091610a616109ae84610950565b11610a10565b5060005b610a766100a3845190565b811015610a9957806109f7610a8e610a9493866108b4565b516114cc565b610a6b565b509050565b15610aa557565b60405162461bcd60e51b81526020600482015260086024820152674e4f5f56414c554560c01b6044820152606490fd5b6100a39190610af9610ae5835190565b610af26109ae6000610950565b1415610a9e565b610b53565b6100fd610b1692602092610b10815190565b94859290565b938491016100a6565b6106a16100fd9160209493610afe565b610b44610b3b60405190565b92839283610b1f565b03902090565b6100a391610b2f565b506100a361044b600092610ba36001610b88610b8187610b738682610b4a565b01546001600160a01b031690565b9387610b4a565b0191610b9261065a565b958601906001600160a01b03169052565b610795565b6100a390610bb461067a565b610ad5565b61022b9190610bc9610ae5825190565b610e4d565b6100976100a36100a39290565b6100a390610bce565b634e487b7160e01b600052600060045260246000fd5b9160001960089290920291821b911b5b9181191691161790565b9190610c256100a3610c2d93610950565b908354610bfa565b9055565b61022b91600091610c14565b818110610c48575050565b80610c566000600193610c31565b01610c3d565b9190601f8111610c6b57505050565b610c7d61022b93600052602060002090565b906020601f840181900483019310610ca0575b6020601f909101045b0190610c3d565b9091508190610c90565b600019600883021c1916906002021790565b90610cc5815190565b906001600160401b03821161021257610ce882610ce285546106bc565b85610c5c565b602090601f8311600114610d1657610c2d929160009183610d0b575b5050610caa565b015190503880610d04565b601f19831691610d2b85600052602060002090565b9260005b818110610d6a57509160029391856001969410610d50575b50505002019055565b01516000196008601f8516021c19165b9055388080610d47565b91936020600181928787015181550195019201610d2f565b9190610d915761022b91610cbc565b610be4565b90815491600160401b8310156102125782610db991600161022b9501815561088c565b90610d82565b15610dc657565b60405162461bcd60e51b81526020600482015260096024820152682327a92124a22222a760b91b6044820152606490fd5b906001600160a01b0390610c0a565b6100a390610097906001600160a01b031682565b6100a390610e06565b6100a390610e1a565b90610e3c6100a3610c2d92610e23565b8254610df7565b9061022b91610cbc565b906001610ed861022b936020600094610e6a86610b738582610b4a565b610e86610e7961009789610bdb565b916001600160a01b031690565b14610ede57610ea933610ea3610e796100978a610b738982610b4a565b14610dbf565b610ed0610ebf878301516001600160a01b031690565b87610eca8682610b4a565b01610e2c565b015193610b4a565b01610e43565b610ee88386610d96565b610ea9565b9061022b91610bb9565b61022b90610f06610ae5825190565b610f42565b15610f1257565b60405162461bcd60e51b81526020600482015260086024820152672727afa7aba722a960c11b6044820152606490fd5b61022b90610f876000610f72610f5c82610b738682610b4a565b610f6b610e7961009785610bdb565b1415610f0b565b610ea3610e796100973393610b738782610b4a565b61131c565b90610f9f90600019906020036008021c90565b8154169055565b90600091610fc4610fbc82600052602060002090565b928354610caa565b905555565b919290602082101561102157601f8411600114610feb57610c2d929350610caa565b509061101c61022b93600161101361100885600052602060002090565b92601f602091010490565b82019101610c3d565b610fa6565b5061105a8293611038600194600052602060002090565b610c996020601f860104820192601f861680611062575b50601f602091010490565b600202179055565b61106e90888603610f8c565b3861104f565b929091600160401b821161021257602011156110bb57602081101561109c57610c2d91610caa565b60019160ff19166110b284600052602060002090565b55600202019055565b60019150600202019055565b9081546110d3816106bc565b908183116110fc575b8183106110ea575b50505050565b6110f393610fc9565b388080806110e4565b61110883838387611074565b6110dc565b600061022b916110c7565b90600003610d915761022b9061110d565b600080825561022b91600101611118565b90600003610d915761022b90611129565b9190820391821161087157565b8054600093929161116f61116b836106bc565b9390565b91600181169081156111c0575060011461118857505050565b61119b9192939450600052602060002090565b6000905b8382106111ac5750500190565b60018160209254848601520191019061119f565b60ff191683525050811515909102019150565b6100a391611158565b6100a391610afe565b9190820180921161087157565b6100a390546106bc565b908082146112cb5761120d816111f2565b906001600160401b0382116102125761122a82610ce285546106bc565b600090601f831160011461125757610c2d92916000918361124c575050610caa565b015490503880610d04565b9061126c601f19841692600052602060002090565b9061127c85600052602060002090565b92815b8181106112b35750916002939185600196941061129f5750505002019055565b01546000196008601f8516021c1916610d60565b9193600180602092878701548155019501920161127f565b5050565b9190610d915761022b916111fc565b634e487b7160e01b600052603160045260246000fd5b8054801561131757600019019061131461130e838361088c565b90611118565b55565b6112de565b6000906113328261132d8382610b4a565b61113a565b60019161133d835490565b6113496109ae83610950565b146114c75782611357815490565b6113636109ae83610950565b036113f1576113786113e0926109ae9261088c565b506113a161138560405190565b80926113956020830191826111d3565b908103825203826101f1565b6113b36113ac825190565b9160200190565b20926113d16113c160405190565b80926113956020830191826111dc565b6113dc6113ac825190565b2090565b146113e85750565b61022b906112f4565b916000915081835b611409575b505090506113e85750565b6114266100a3611417865490565b61142087610950565b9061114b565b8110156114c257611437818561088c565b5061144461138560405190565b61144f6113ac825190565b206114716109ae61145f60405190565b6113d1816020810161139589826111dc565b146114ba575b611485908361148b57610862565b836113f9565b6109f76114a96114a361149d88610950565b846111e5565b8761088c565b506114b4838861088c565b906112cf565b839250611477565b6113fe565b505050565b61022b90610ef756fea2646970667358221220a9c5d771b99dd8bbb1e4e437053164c13d0256e09dc51ffcaf2fa89208897d0964736f6c63430008120033",
  "linkReferences": {},
  "deployedLinkReferences": {}
}